1AIRLINE STANDARD SCHEDULE DATA SET                                                                                                                                                            001000001
00000000000000000000000000000000000000000000000000000000000000000000000000000000000000000000000000000000000000000000000000000000000000000000000000000000000000000000000000000000000000000000000000000000
00000000000000000000000000000000000000000000000000000000000000000000000000000000000000000000000000000000000000000000000000000000000000000000000000000000000000000000000000000000000000000000000000000000
00000000000000000000000000000000000000000000000000000000000000000000000000000000000000000000000000000000000000000000000000000000000000000000000000000000000000000000000000000000000000000000000000000000
00000000000000000000000000000000000000000000000000000000000000000000000000000000000000000000000000000000000000000000000000000000000000000000000000000000000000000000000000000000000000000000000000000000
2LBQ          02DEC2524OCT2602DEC25                             02DEC25C/REFERENCE 129452.0.1                                                                                               ET0203000002
00000000000000000000000000000000000000000000000000000000000000000000000000000000000000000000000000000000000000000000000000000000000000000000000000000000000000000000000000000000000000000000000000000000
00000000000000000000000000000000000000000000000000000000000000000000000000000000000000000000000000000000000000000000000000000000000000000000000000000000000000000000000000000000000000000000000000000000
00000000000000000000000000000000000000000000000000000000000000000000000000000000000000000000000000000000000000000000000000000000000000000000000000000000000000000000000000000000000000000000000000000000
00000000000000000000000000000000000000000000000000000000000000000000000000000000000000000000000000000000000000000000000000000000000000000000000000000000000000000000000000000000000000000000000000000000
3 BQ 19020101J16MAY2623MAY26     6  BZO08300830+0200  SUF10301030+0200  DH4URQONMLKI                                                                                        Y76                 00000003
3 BQ 19020201J26MAY2626SEP26 2   6  BZO08300830+0200  SUF10301030+0200  DH4URQONMLKI                                                                                        Y76                 00000004
3 BQ 19020301J04JUN2610SEP26   4    BZO15001500+0200  SUF17001700+0200  DH4URQONMLKI                                                                                        Y76                 00000005
3 BQ 19030101J16MAY2623MAY26     6  SUF11151115+0200  BZO13151315+0200  DH4URQONMLKI                                                                                        Y76                 00000006
3 BQ 19030201J26MAY2626SEP26 2   6  SUF11151115+0200  BZO13151315+0200  DH4URQONMLKI                                                                                        Y76                 00000007
3 BQ 19030301J04JUN2610SEP26   4    SUF17451745+0200  BZO19451945+0200  DH4URQONMLKI                                                                                        Y76                 00000008
3 BQ 19040101J16MAY2626SEP26     6  BZO11501150+0200  BDS13401340+0200  DH4URQONMLKI                                                                                        Y76                 00000009
3 BQ 19040201J20MAY2623SEP26  3     BZO09000900+0200  BDS10501050+0200  DH4URQONMLKI                                                                                        Y76                 00000010
3 BQ 19040301J24MAY2620SEP26      7 BZO07150715+0200  BDS09050905+0200  DH4URQONMLKI                                                                                        Y76                 00000011
3 BQ 19050101J16MAY2626SEP26     6  BDS14251425+0200  BZO16151615+0200  DH4URQONMLKI                                                                                        Y76                 00000012
3 BQ 19050201J20MAY2623SEP26  3     BDS11351135+0200  BZO13251325+0200  DH4URQONMLKI                                                                                        Y76                 00000013
3 BQ 19050301J24MAY2620SEP26      7 BDS09500950+0200  BZO11401140+0200  DH4URQONMLKI                                                                                        Y76                 00000014
3 BQ 19060101J16MAY2626SEP26     6  BZO07000700+0200  OLB08300830+0200  DH4URQONMLKI                                                                                        Y76                 00000015
3 BQ 19060201J20MAY2623SEP26  3     BZO13301330+0200  OLB15001500+0200  DH4URQONMLKI                                                                                        Y76                 00000016
3 BQ 19060301J22MAY2623AUG26    5 7 BZO07100710+0200  OLB08400840+0200  DH4URQONMLKI                                                                                        Y76                 00000017
3 BQ 19060401J30AUG2611OCT26      7 BZO07100710+0200  OLB08400840+0200  DH4URQONMLKI                                                                                        Y76                 00000018
3 BQ 19060501J02JUN2614JUL26 2      BZO13001300+0200  OLB14301430+0200  DH4URQONMLKI                                                                                        Y76                 00000019
3 BQ 19060601J21JUL2629SEP26 2      BZO14051405+0200  OLB15351535+0200  DH4URQONMLKI                                                                                        Y76                 00000020
3 BQ 19060701J28AUG2609OCT26    5   BZO08300830+0200  OLB10001000+0200  DH4URQONMLKI                                                                                        Y76                 00000021
3 BQ 19070101J16MAY2626SEP26     6  OLB09150915+0200  BZO10451045+0200  DH4URQONMLKI                                                                                        Y76                 00000022
3 BQ 19070201J20MAY2623SEP26  3     OLB15451545+0200  BZO17201720+0200  DH4URQONMLKI                                                                                        Y76                 00000023
3 BQ 19070301J22MAY2617JUL26    5   OLB14201420+0200  BZO15501550+0200  DH4URQONMLKI                                                                                        Y76                 00000024
3 BQ 19070401J30AUG2611OCT26      7 OLB14201420+0200  BZO15501550+0200  DH4URQONMLKI                                                                                        Y76                 00000025
3 BQ 19070501J24MAY2619JUL26      7 OLB09250925+0200  BZO10551055+0200  DH4URQONMLKI                                                                                        Y76                 00000026
3 BQ 19070601J24JUL2623AUG26    5 7 OLB09250925+0200  BZO10551055+0200  DH4URQONMLKI                                                                                        Y76                 00000027
3 BQ 19070701J02JUN2614JUL26 2      OLB15151515+0200  BZO16501650+0200  DH4URQONMLKI                                                                                        Y76                 00000028
3 BQ 19070801J21JUL2629SEP26 2      OLB16201620+0200  BZO17501750+0200  DH4URQONMLKI                                                                                        Y76                 00000029
3 BQ 19070901J28AUG2609OCT26    5   OLB15501550+0200  BZO17201720+0200  DH4URQONMLKI                                                                                        Y76                 00000030
3 BQ 19080101J17MAY2617MAY26      7 BZO07300730+0200  CTA09450945+0200  DH4URQONMLKI                                                                                        Y76                 00000031
3 BQ 19080201J20MAY2627SEP26  3   7 BZO07300730+0200  CTA09450945+0200  DH4URQONMLKI                                                                                        Y76                 00000032
3 BQ 19090101J17MAY2627SEP26      7 CTA10301030+0200  BZO12451245+0200  DH4URQONMLKI                                                                                        Y76                 00000033
3 BQ 19090201J20MAY2623SEP26  3     CTA10301030+0200  BZO12401240+0200  DH4URQONMLKI                                                                                        Y76                 00000034
3 BQ 19100101J16MAY2616MAY26     6  BZO08050805+0200  CAG09550955+0200  DH4URQONMLKI                                                                                        Y76                 00000035
3 BQ 19100201J20MAY2603OCT26  3  6  BZO08050805+0200  CAG09550955+0200  DH4URQONMLKI                                                                                        Y76                 00000036
3 BQ 19100301J10OCT2610OCT26     6  BZO08050805+0200  CAG09550955+0200  DH4URQONMLKI                                                                                        Y76                 00000037
3 BQ 19100401J24MAY2627SEP26      7 BZO17001700+0200  CAG18501850+0200  DH4URQONMLKI                                                                                        Y76                 00000038
3 BQ 19100501J29MAY2625SEP26    5   BZO17551755+0200  CAG19451945+0200  DH4URQONMLKI                                                                                        Y76                 00000039
3 BQ 19110101J16MAY2616MAY26     6  CAG10401040+0200  BZO12351235+0200  DH4URQONMLKI                                                                                        Y76                 00000040
3 BQ 19110201J20MAY2622JUL26  3     CAG10401040+0200  BZO12351235+0200  DH4URQONMLKI                                                                                        Y76                 00000041
3 BQ 19110301J25JUL2625JUL26     6  CAG10401040+0200  BZO12351235+0200  DH4URQONMLKI                                                                                        Y76                 00000042
3 BQ 19110401J29JUL2626AUG26  3  6  CAG10401040+0200  BZO12351235+0200  DH4URQONMLKI                                                                                        Y76                 00000043
3 BQ 19110501J02SEP2630SEP26  3     CAG10401040+0200  BZO12351235+0200  DH4URQONMLKI                                                                                        Y76                 00000044
3 BQ 19110601J23MAY2618JUL26     6  CAG16151615+0200  BZO18101810+0200  DH4URQONMLKI                                                                                        Y76                 00000045
3 BQ 19110701J29AUG2610OCT26     6  CAG16151615+0200  BZO18101810+0200  DH4URQONMLKI                                                                                        Y76                 00000046
3 BQ 19110801J24MAY2627SEP26      7 CAG19351935+0200  BZO21302130+0200  DH4URQONMLKI                                                                                        Y76                 00000047
3 BQ 19110901J29MAY2625SEP26    5   CAG20352035+0200  BZO22302230+0200  DH4URQONMLKI                                                                                        Y76                 00000048
3 BQ 19180101J02DEC2507DEC25 234567 CRV07300730+0100  FCO09000900+0100  DH4DCBAI                                                                                            Y76                 00000049
3 BQ 19180201J08DEC2528DEC251234567 CRV07300730+0100  FCO09000900+0100  DH4DCBAI                                                                                            Y76                 00000050
3 BQ 19180301J29DEC2529MAR261234567 CRV07300730+0100  FCO09000900+0100  DH4DCBAI                                                                                            Y76                 00000051
3 BQ 19180401J30MAR2631AUG261234567 CRV07300730+0200  FCO09000900+0200  DH4DCBAI                                                                                            Y76                 00000052
3 BQ 19190101J02DEC2507DEC25 234567 FCO17301730+0100  CRV18551855+0100  DH4DCBAI                                                                                            Y76                 00000053
3 BQ 19190201J08DEC2528DEC251234567 FCO17301730+0100  CRV18551855+0100  DH4DCBAI                                                                                            Y76                 00000054
3 BQ 19190301J29DEC2529MAR261234567 FCO17301730+0100  CRV18551855+0100  DH4DCBAI                                                                                            Y76                 00000055
3 BQ 19190401J30MAR2631AUG261234567 FCO17301730+0200  CRV18551855+0200  DH4DCBAI                                                                                            Y76                 00000056
3 BQ 19200101J10JAN2614MAR26     6  BZO11501150+0100  BLL14001400+0100  DH4URQONMLKIWSYAC                                                                                   Y76                 00000057
3 BQ 19210101J10JAN2614MAR26     6  BLL14451445+0100  BZO17001700+0100  DH4URQONMLKIWSYAC                                                                                   Y76                 00000058
3 BQ 19320101J03DEC2524DEC25  3     BZO14551455+0100  LGW16101610+0000  DH4URQONMLKI                                                                                        Y76                 00000059
3 BQ 19320201J31DEC2525MAR26  3     BZO14551455+0100  LGW16101610+0000  DH4URQONMLKI                                                                                        Y76                 00000060
3 BQ 19320301J07DEC2528DEC25      7 BZO10451045+0100  LGW12001200+0000  DH4URQONMLKI                                                                                        Y76                 00000061
3 BQ 19320401J04JAN2622MAR26      7 BZO10451045+0100  LGW12001200+0000  DH4URQONMLKI                                                                                        Y76                 00000062
3 BQ 19320501J20DEC2527DEC25     6  BZO15101510+0100  LGW16251625+0000  DH4URQONMLKI                                                                                        Y76                 00000063
3 BQ 19320601J03JAN2628MAR26     6  BZO15101510+0100  LGW16251625+0000  DH4URQONMLKI                                                                                        Y76                 00000064
3 BQ 19320701J29MAR2629MAR26      7 BZO10401040+0200  LGW12051205+0100  DH4URQONMLKI                                                                                        Y76                 00000065
3 BQ 19320801J05APR2618OCT26      7 BZO10401040+0200  LGW12051205+0100  DH4URQONMLKI                                                                                        Y76                 00000066
3 BQ 19320901J01APR2621OCT26  3     BZO13351335+0200  LGW15051505+0100  DH4URQONMLKI                                                                                        Y76                 00000067
3 BQ 19321001J30MAY2626SEP26     6  BZO14301430+0200  LGW15551555+0100  DH4URQONMLKI                                                                                        Y76                 00000068
3 BQ 19330101J03DEC2524DEC25  3     LGW16551655+0000  BZO20152015+0100  DH4URQONMLKI                                                                                        Y76                 00000069
3 BQ 19330201J31DEC2525MAR26  3     LGW16551655+0000  BZO20152015+0100  DH4URQONMLKI                                                                                        Y76                 00000070
3 BQ 19330301J07DEC2528DEC25      7 LGW12351235+0000  BZO15551555+0100  DH4URQONMLKI                                                                                        Y76                 00000071
3 BQ 19330401J04JAN2622MAR26      7 LGW12351235+0000  BZO15551555+0100  DH4URQONMLKI                                                                                        Y76                 00000072
3 BQ 19330501J20DEC2527DEC25     6  LGW17101710+0000  BZO20302030+0100  DH4URQONMLKI                                                                                        Y76                 00000073
3 BQ 19330601J03JAN2628MAR26     6  LGW17101710+0000  BZO20302030+0100  DH4URQONMLKI                                                                                        Y76                 00000074
3 BQ 19330701J29MAR2629MAR26      7 LGW12501250+0100  BZO16101610+0200  DH4URQONMLKI                                                                                        Y76                 00000075
3 BQ 19330801J05APR2618OCT26      7 LGW12501250+0100  BZO16101610+0200  DH4URQONMLKI                                                                                        Y76                 00000076
3 BQ 19330901J01APR2621OCT26  3     LGW15501550+0100  BZO19201920+0200  DH4URQONMLKI                                                                                        Y76                 00000077
3 BQ 19331001J30MAY2626SEP26     6  LGW16401640+0100  BZO20002000+0200  DH4URQONMLKI                                                                                        Y76                 00000078
3 BQ 19400101J29MAY2625SEP26    5   BZO16351635+0200  CFU19451945+0300  DH4URQONMLKI                                                                                        Y76                 00000079
3 BQ 19400201J02JUN2614JUL26 2      BZO07000700+0200  CFU10101010+0300  DH4URQONMLKI                                                                                        Y76                 00000080
3 BQ 19410101J29MAY2625SEP26    5   CFU20302030+0300  BZO21402140+0200  DH4URQONMLKI                                                                                        Y76                 00000081
3 BQ 19410201J02JUN2614JUL26 2      CFU10551055+0300  BZO12051205+0200  DH4URQONMLKI                                                                                        Y76                 00000082
3 BQ 19430101J20DEC2520DEC25     6  BZO11351135+0100  CPH13501350+0100  DH4URQONMLKI                                                                                        Y76                 00000083
3 BQ 19430201J21DEC2528DEC25      7 BZO10301030+0100  CPH12451245+0100  DH4URQONMLKIWSYAC                                                                                   Y76                 00000084
3 BQ 19430301J04JAN2622MAR26      7 BZO10301030+0100  CPH12451245+0100  DH4URQONMLKIWSYAC                                                                                   Y76                 00000085
3 BQ 19430401J27DEC2527DEC25     6  BZO11351135+0100  CPH13501350+0100  DH4URQONMLKIWSYAC                                                                                   Y76                 00000086
3 BQ 19430501J03JAN2628MAR26     6  BZO11351135+0100  CPH13501350+0100  DH4URQONMLKIWSYAC                                                                                   Y76                 00000087
3 BQ 19430601J07JAN2614JAN26  3     BZO09150915+0100  CPH11301130+0100  DH4URQONMLKIWSYAC                                                                                   Y76                 00000088
3 BQ 19430701J04MAR2618MAR26  3     BZO09150915+0100  CPH11301130+0100  DH4URQONMLKIWSYAC                                                                                   Y76                 00000089
3 BQ 19430801J04APR2604APR26     6  BZO12301230+0200  CPH14501450+0200  DH4URQONMLKIWSYAC                                                                                   Y76                 00000090
3 BQ 19440101J20DEC2527DEC25     6  CPH14351435+0100  BZO17001700+0100  DH4URQONMLKIWSYAC                                                                                   Y76                 00000091
3 BQ 19440201J03JAN2628MAR26     6  CPH14351435+0100  BZO17001700+0100  DH4URQONMLKIWSYAC                                                                                   Y76                 00000092
3 BQ 19440301J21DEC2528DEC25      7 CPH13301330+0100  BZO15401540+0100  DH4URQONMLKIWSYAC                                                                                   Y76                 00000093
3 BQ 19440401J04JAN2622MAR26      7 CPH13301330+0100  BZO15401540+0100  DH4URQONMLKIWSYAC                                                                                   Y76                 00000094
3 BQ 19440501J07JAN2614JAN26  3     CPH12151215+0100  BZO14401440+0100  DH4URQONMLKIWSYAC                                                                                   Y76                 00000095
3 BQ 19440601J04MAR2618MAR26  3     CPH12151215+0100  BZO14401440+0100  DH4URQONMLKIWSYAC                                                                                   Y76                 00000096
3 BQ 19440701J04APR2604APR26     6  CPH15351535+0200  BZO17551755+0200  DH4URQONMLKIWSYAC                                                                                   Y76                 00000097
3 BQ 19460101J29MAY2625SEP26    5   BZO07100710+0200  EFL10401040+0300  DH4URQONMLKI                                                                                        Y76                 00000098
3 BQ 19470101J29MAY2625SEP26    5   EFL11251125+0300  BZO12551255+0200  DH4URQONMLKI                                                                                        Y76                 00000099
3 BQ 19500101J03DEC2503DEC25  3     BZO15251525+0100  BER17051705+0100  DH4URQONMLKI                                                                                        Y76                 00000100
3 BQ 19500201J10DEC2524DEC25  3     BZO15251525+0100  BER17051705+0100  DH4URQONMLKI                                                                                        Y76                 00000101
3 BQ 19500301J31DEC2528JAN26  3     BZO15251525+0100  BER17051705+0100  DH4URQONMLKI                                                                                        Y76                 00000102
3 BQ 19500401J11FEB2625MAR26  3     BZO15251525+0100  BER17051705+0100  DH4URQONMLKI                                                                                        Y76                 00000103
3 BQ 19500501J05DEC2528DEC25    5 7 BZO16351635+0100  BER18151815+0100  DH4URQONMLKI                                                                                        Y76                 00000104
3 BQ 19500601J02JAN2627MAR26    5 7 BZO16351635+0100  BER18151815+0100  DH4URQONMLKI                                                                                        Y76                 00000105
3 BQ 19500701J18DEC2518DEC25   4    BZO14551455+0100  BER16351635+0100  DH4URQONMLKI                                                                                        Y76                 00000106
3 BQ 19500801J01JAN2626FEB26   4    BZO14551455+0100  BER16351635+0100  DH4URQONMLKI                                                                                        Y76                 00000107
3 BQ 19500901J20DEC2527DEC25     6  BZO17201720+0100  BER19001900+0100  DH4URQONMLKI                                                                                        Y76                 00000108
3 BQ 19501001J03JAN2628MAR26     6  BZO17201720+0100  BER19001900+0100  DH4URQONMLKI                                                                                        Y76                 00000109
3 BQ 19501101J02FEB2609FEB261       BZO15001500+0100  BER16401640+0100  DH4URQONMLKI                                                                                        Y76                 00000110
3 BQ 19501201J04FEB2604FEB26  3     BZO07000700+0100  BER08400840+0100  DH4URQONMLKI                                                                                        Y76                 00000111
3 BQ 19501301J03MAR2603MAR26 2      BZO07000700+0100  BER08400840+0100  DH4URQONMLKIWSYAC                                                                                   Y76                 00000112
3 BQ 19501401J05MAR2605MAR26   4    BZO18301830+0100  BER20102010+0100  DH4URQONMLKI                                                                                        Y76                 00000113
3 BQ 19501501J29MAR2629MAR26      7 BZO13251325+0200  BER15101510+0200  DH4URQONMLKI                                                                                        Y76                 00000114
3 BQ 19501601J01APR2621OCT26  3   7 BZO13251325+0200  BER15101510+0200  DH4URQONMLKI                                                                                        Y76                 00000115
3 BQ 19501701J03APR2623OCT26    5   BZO08000800+0200  BER09450945+0200  DH4URQONMLKI                                                                                        Y76                 00000116
3 BQ 19501801J04APR2624OCT26     6  BZO09100910+0200  BER10551055+0200  DH4URQONMLKI                                                                                        Y76                 00000117
3 BQ 19510101J03DEC2503DEC25  3     BER17501750+0100  BZO19401940+0100  DH4URQONMLKI                                                                                        Y76                 00000118
3 BQ 19510201J10DEC2524DEC25  3     BER17501750+0100  BZO19401940+0100  DH4URQONMLKI                                                                                        Y76                 00000119
3 BQ 19510301J31DEC2528JAN26  3     BER17501750+0100  BZO19401940+0100  DH4URQONMLKI                                                                                        Y76                 00000120
3 BQ 19510401J11FEB2625MAR26  3     BER17501750+0100  BZO19401940+0100  DH4URQONMLKI                                                                                        Y76                 00000121
3 BQ 19510501J05DEC2528DEC25    5 7 BER19001900+0100  BZO20502050+0100  DH4URQONMLKI                                                                                        Y76                 00000122
3 BQ 19510601J02JAN2627MAR26    5 7 BER19001900+0100  BZO20502050+0100  DH4URQONMLKI                                                                                        Y76                 00000123
3 BQ 19510701J18DEC2518DEC25   4    BER17201720+0100  BZO19101910+0100  DH4URQONMLKI                                                                                        Y76                 00000124
3 BQ 19510801J01JAN2626FEB26   4    BER17201720+0100  BZO19101910+0100  DH4URQONMLKI                                                                                        Y76                 00000125
3 BQ 19510901J20DEC2527DEC25     6  BER19451945+0100  BZO21352135+0100  DH4URQONMLKI                                                                                        Y76                 00000126
3 BQ 19511001J03JAN2628MAR26     6  BER19451945+0100  BZO21352135+0100  DH4URQONMLKI                                                                                        Y76                 00000127
3 BQ 19511101J02FEB2609FEB261       BER17251725+0100  BZO19151915+0100  DH4URQONMLKI                                                                                        Y76                 00000128
3 BQ 19511201J04FEB2604FEB26  3     BER09250925+0100  BZO11051105+0100  DH4URQONMLKI                                                                                        Y76                 00000129
3 BQ 19511301J03MAR2603MAR26 2      BER09250925+0100  BZO11151115+0100  DH4URQONMLKIWSYAC                                                                                   Y76                 00000130
3 BQ 19511401J05MAR2605MAR26   4    BER20552055+0100  BZO22452245+0100  DH4URQONMLKI                                                                                        Y76                 00000131
3 BQ 19511501J29MAR2629MAR26      7 BER15551555+0200  BZO17401740+0200  DH4URQONMLKI                                                                                        Y76                 00000132
3 BQ 19511601J01APR2621OCT26  3   7 BER15551555+0200  BZO17401740+0200  DH4URQONMLKI                                                                                        Y76                 00000133
3 BQ 19511701J03APR2623OCT26    5   BER10301030+0200  BZO12151215+0200  DH4URQONMLKI                                                                                        Y76                 00000134
3 BQ 19511801J04APR2624OCT26     6  BER11401140+0200  BZO13251325+0200  DH4URQONMLKI                                                                                        Y76                 00000135
3 BQ 19520101J02DEC2523DEC25 2      BZO09300930+0100  DUS11151115+0100  DH4URQONMLKI                                                                                        Y76                 00000136
3 BQ 19520201J30DEC2510MAR26 2      BZO09300930+0100  DUS11151115+0100  DH4URQONMLKI                                                                                        Y76                 00000137
3 BQ 19520301J24MAR2624MAR26 2      BZO09300930+0100  DUS11151115+0100  DH4URQONMLKI                                                                                        Y76                 00000138
3 BQ 19520401J04DEC2518DEC25   4 67 BZO10001000+0100  DUS11451145+0100  DH4URQONMLKI                                                                                        Y76                 00000139
3 BQ 19520501J19DEC2528DEC25    567 BZO10001000+0100  DUS11451145+0100  DH4URQONMLKI                                                                                        Y76                 00000140
3 BQ 19520601J02JAN2604JAN26    567 BZO10001000+0100  DUS11451145+0100  DH4URQONMLKI                                                                                        Y76                 00000141
3 BQ 19520701J08JAN2628MAR26   4567 BZO10001000+0100  DUS11451145+0100  DH4URQONMLKI                                                                                        Y76                 00000142
3 BQ 19520801J31MAR2622OCT26 2 4    BZO10001000+0200  DUS11451145+0200  DH4URQONMLKI                                                                                        Y76                 00000143
3 BQ 19520901J22DEC2522DEC251       BZO15151515+0100  DUS17001700+0100  DH4URQONMLKI                                                                                        Y76                 00000144
3 BQ 19521001J29DEC2516MAR261       BZO15151515+0100  DUS17001700+0100  DH4URQONMLKI                                                                                        Y76                 00000145
3 BQ 19521101J01JAN2601JAN26   4    BZO10001000+0100  DUS11451145+0100  DH4URQONMLKIY                                                                                       Y76                 00000146
3 BQ 19521201J17MAR2617MAR26 2      BZO17051705+0100  DUS18451845+0100  DH4URQONMLKI                                                                                        Y76                 00000147
3 BQ 19521301J29MAR2629MAR26      7 BZO17301730+0200  DUS19151915+0200  DH4URQONMLKI                                                                                        Y76                 00000148
3 BQ 19521401J05APR2618OCT26      7 BZO17301730+0200  DUS19151915+0200  DH4URQONMLKI                                                                                        Y76                 00000149
3 BQ 19521501J04APR2624OCT26     6  BZO17101710+0200  DUS18551855+0200  DH4URQONMLKI                                                                                        Y76                 00000150
3 BQ 19521601J04MAY2619OCT261       BZO14501450+0200  DUS16351635+0200  DH4URQONMLKI                                                                                        Y76                 00000151
3 BQ 19530101J02DEC2523DEC25 2      DUS12001200+0100  BZO13401340+0100  DH4URQONMLKI                                                                                        Y76                 00000152
3 BQ 19530201J30DEC2510MAR26 2      DUS12001200+0100  BZO13401340+0100  DH4URQONMLKI                                                                                        Y76                 00000153
3 BQ 19530301J24MAR2624MAR26 2      DUS12001200+0100  BZO13401340+0100  DH4URQONMLKI                                                                                        Y76                 00000154
3 BQ 19530401J04DEC2518DEC25   4 67 DUS12301230+0100  BZO14101410+0100  DH4URQONMLKI                                                                                        Y76                 00000155
3 BQ 19530501J19DEC2528DEC25    567 DUS12301230+0100  BZO14101410+0100  DH4URQONMLKI                                                                                        Y76                 00000156
3 BQ 19530601J01JAN2628MAR26   4567 DUS12301230+0100  BZO14101410+0100  DH4URQONMLKI                                                                                        Y76                 00000157
3 BQ 19530701J22DEC2522DEC251       DUS17451745+0100  BZO19251925+0100  DH4URQONMLKIY                                                                                       Y76                 00000158
3 BQ 19530801J29DEC2516MAR261       DUS17451745+0100  BZO19251925+0100  DH4URQONMLKI                                                                                        Y76                 00000159
3 BQ 19530901J17MAR2617MAR26 2      DUS19301930+0100  BZO21102110+0100  DH4URQONMLKI                                                                                        Y76                 00000160
3 BQ 19531001J29MAR2629MAR26      7 DUS20002000+0200  BZO21452145+0200  DH4URQONMLKI                                                                                        Y76                 00000161
3 BQ 19531101J05APR2618OCT26      7 DUS20002000+0200  BZO21452145+0200  DH4URQONMLKI                                                                                        Y76                 00000162
3 BQ 19531201J31MAR2622OCT26 2 4    DUS12301230+0200  BZO14151415+0200  DH4URQONMLKI                                                                                        Y76                 00000163
3 BQ 19531301J04APR2624OCT26     6  DUS19401940+0200  BZO21252125+0200  DH4URQONMLKI                                                                                        Y76                 00000164
3 BQ 19531401J04MAY2619OCT261       DUS17201720+0200  BZO19051905+0200  DH4URQONMLKI                                                                                        Y76                 00000165
3 BQ 19540101J02DEC2523DEC25 2      BZO14251425+0100  HAM16251625+0100  DH4URQONMLKI                                                                                        Y76                 00000166
3 BQ 19540201J30DEC2524MAR26 2      BZO14251425+0100  HAM16251625+0100  DH4URQONMLKI                                                                                        Y76                 00000167
3 BQ 19540301J04DEC2518DEC25   4    BZO09450945+0100  HAM11451145+0100  DH4URQONMLKI                                                                                        Y76                 00000168
3 BQ 19540401J08JAN2626MAR26   4    BZO09450945+0100  HAM11451145+0100  DH4URQONMLKI                                                                                        Y76                 00000169
3 BQ 19540501J05DEC2505DEC25    5   BZO14551455+0100  HAM16551655+0100  DH4URQONMLKI                                                                                        Y76                 00000170
3 BQ 19540601J12DEC2526DEC25    5   BZO14551455+0100  HAM16551655+0100  DH4URQONMLKI                                                                                        Y76                 00000171
3 BQ 19540701J02JAN2627MAR26    5   BZO14551455+0100  HAM16551655+0100  DH4URQONMLKI                                                                                        Y76                 00000172
3 BQ 19540801J06DEC2527DEC25     6  BZO15251525+0100  HAM17251725+0100  DH4URQONMLKI                                                                                        Y76                 00000173
3 BQ 19540901J03JAN2628MAR26     6  BZO15251525+0100  HAM17251725+0100  DH4URQONMLKI                                                                                        Y76                 00000174
3 BQ 19541001J07DEC2528DEC25      7 BZO15151515+0100  HAM17151715+0100  DH4URQONMLKI                                                                                        Y76                 00000175
3 BQ 19541101J04JAN2622MAR26      7 BZO15151515+0100  HAM17151715+0100  DH4URQONMLKI                                                                                        Y76                 00000176
3 BQ 19541201J22DEC2522DEC251       BZO15001500+0100  HAM17001700+0100  DH4URQONMLKI                                                                                        Y76                 00000177
3 BQ 19541301J29DEC2529DEC251       BZO15001500+0100  HAM17001700+0100  DH4URQONMLKI                                                                                        Y76                 00000178
3 BQ 19541401J16MAR2623MAR261       BZO15001500+0100  HAM17001700+0100  DH4URQONMLKI                                                                                        Y76                 00000179
3 BQ 19541501J31MAR2622OCT26 2 4    BZO15001500+0200  HAM17001700+0200  DH4URQONMLKI                                                                                        Y76                 00000180
3 BQ 19541601J01JAN2601JAN26   4    BZO11451145+0100  HAM13451345+0100  DH4URQONMLKI                                                                                        Y76                 00000181
3 BQ 19541701J29MAR2629MAR26      7 BZO17051705+0200  HAM19051905+0200  DH4URQONMLKI                                                                                        Y76                 00000182
3 BQ 19541801J05APR2618OCT26      7 BZO17051705+0200  HAM19051905+0200  DH4URQONMLKI                                                                                        Y76                 00000183
3 BQ 19541901J04APR2624OCT26     6  BZO14101410+0200  HAM16101610+0200  DH4URQONMLKI                                                                                        Y76                 00000184
3 BQ 19550101J02DEC2523DEC25 2      HAM17101710+0100  BZO19101910+0100  DH4URQONMLKI                                                                                        Y76                 00000185
3 BQ 19550201J30DEC2524MAR26 2      HAM17101710+0100  BZO19101910+0100  DH4URQONMLKI                                                                                        Y76                 00000186
3 BQ 19550301J04DEC2518DEC25   4    HAM12301230+0100  BZO14301430+0100  DH4URQONMLKI                                                                                        Y76                 00000187
3 BQ 19550401J08JAN2626MAR26   4    HAM12301230+0100  BZO14301430+0100  DH4URQONMLKI                                                                                        Y76                 00000188
3 BQ 19550501J05DEC2505DEC25    5   HAM17401740+0100  BZO19401940+0100  DH4URQONMLKI                                                                                        Y76                 00000189
3 BQ 19550601J12DEC2526DEC25    5   HAM17401740+0100  BZO19401940+0100  DH4URQONMLKI                                                                                        Y76                 00000190
3 BQ 19550701J02JAN2627MAR26    5   HAM17401740+0100  BZO19401940+0100  DH4URQONMLKI                                                                                        Y76                 00000191
3 BQ 19550801J06DEC2527DEC25     6  HAM18101810+0100  BZO20102010+0100  DH4URQONMLKI                                                                                        Y76                 00000192
3 BQ 19550901J03JAN2628MAR26     6  HAM18101810+0100  BZO20102010+0100  DH4URQONMLKI                                                                                        Y76                 00000193
3 BQ 19551001J07DEC2528DEC25      7 HAM18001800+0100  BZO20002000+0100  DH4URQONMLKI                                                                                        Y76                 00000194
3 BQ 19551101J04JAN2622MAR26      7 HAM18001800+0100  BZO20002000+0100  DH4URQONMLKI                                                                                        Y76                 00000195
3 BQ 19551201J22DEC2522DEC251       HAM17451745+0100  BZO19451945+0100  DH4URQONMLKI                                                                                        Y76                 00000196
3 BQ 19551301J29DEC2529DEC251       HAM17451745+0100  BZO19451945+0100  DH4URQONMLKI                                                                                        Y76                 00000197
3 BQ 19551401J16MAR2623MAR261       HAM17451745+0100  BZO19451945+0100  DH4URQONMLKI                                                                                        Y76                 00000198
3 BQ 19551501J31MAR2622OCT26 2 4    HAM17451745+0200  BZO19451945+0200  DH4URQONMLKI                                                                                        Y76                 00000199
3 BQ 19551601J01JAN2601JAN26   4    HAM14301430+0100  BZO16301630+0100  DH4URQONMLKI                                                                                        Y76                 00000200
3 BQ 19551701J29MAR2629MAR26      7 HAM19501950+0200  BZO21502150+0200  DH4URQONMLKI                                                                                        Y76                 00000201
3 BQ 19551801J05APR2618OCT26      7 HAM19501950+0200  BZO21502150+0200  DH4URQONMLKI                                                                                        Y76                 00000202
3 BQ 19551901J04APR2624OCT26     6  HAM16551655+0200  BZO18551855+0200  DH4URQONMLKI                                                                                        Y76                 00000203
3 BQ 19560101J01MAY2623OCT26    5   BZO13001300+0200  KSF14301430+0200  DH4URQONMLKI                                                                                        Y76                 00000204
3 BQ 19560201J04MAY2629JUN261       BZO14451445+0200  KSF16151615+0200  DH4URQONMLKI                                                                                        Y76                 00000205
3 BQ 19560301J31AUG2619OCT261       BZO14451445+0200  KSF16151615+0200  DH4URQONMLKI                                                                                        Y76                 00000206
3 BQ 19570101J01MAY2623OCT26    5   KSF15151515+0200  BZO16451645+0200  DH4URQONMLKI                                                                                        Y76                 00000207
3 BQ 19570201J04MAY2629JUN261       KSF17001700+0200  BZO18301830+0200  DH4URQONMLKI                                                                                        Y76                 00000208
3 BQ 19570301J31AUG2619OCT261       KSF17001700+0200  BZO18301830+0200  DH4URQONMLKI                                                                                        Y76                 00000209
3 BQ 19630101J03DEC2524DEC25  3     BZO09200920+0100  ANR11151115+0100  DH4URQONMLKI                                                                                        Y76                 00000210
3 BQ 19630201J31DEC2525MAR26  3     BZO09200920+0100  ANR11151115+0100  DH4URQONMLKI                                                                                        Y76                 00000211
3 BQ 19630301J07DEC2507DEC25      7 BZO14451445+0100  ANR16401640+0100  DH4URQONMLKI                                                                                        Y76                 00000212
3 BQ 19630401J14DEC2528DEC25      7 BZO14451445+0100  ANR16401640+0100  DH4URQONMLKI                                                                                        Y76                 00000213
3 BQ 19630501J04JAN2601MAR26      7 BZO14451445+0100  ANR16401640+0100  DH4URQONMLKI                                                                                        Y76                 00000214
3 BQ 19630601J15MAR2622MAR26      7 BZO14451445+0100  ANR16401640+0100  DH4URQONMLKI                                                                                        Y76                 00000215
3 BQ 19630701J19DEC2519DEC25    5   BZO10351035+0100  ANR12301230+0100  DH4URQONMLKI                                                                                        Y76                 00000216
3 BQ 19630801J06JAN2606JAN26 2      BZO10351035+0100  ANR12301230+0100  DH4URQONMLKI                                                                                        Y76                 00000217
3 BQ 19630901J13FEB2620FEB26    5   BZO10351035+0100  ANR12301230+0100  DH4URQONMLKI                                                                                        Y76                 00000218
3 BQ 19631001J20DEC2527DEC25     6  BZO09500950+0100  ANR11451145+0100  DH4URQONMLKI                                                                                        Y76                 00000219
3 BQ 19631101J03JAN2628MAR26     6  BZO09500950+0100  ANR11451145+0100  DH4URQONMLKI                                                                                        Y76                 00000220
3 BQ 19631201J08MAR2608MAR26      7 BZO14451445+0100  ANR16401640+0100  DH4URQONMLKIY                                                                                       Y76                 00000221
3 BQ 19631301J29MAR2629MAR26      7 BZO12301230+0200  ANR14201420+0200  DH4URQONMLKI                                                                                        Y76                 00000222
3 BQ 19631401J05APR2618OCT26      7 BZO12301230+0200  ANR14201420+0200  DH4URQONMLKI                                                                                        Y76                 00000223
3 BQ 19631501J02APR2614MAY26   4    BZO15001500+0200  ANR16501650+0200  DH4URQONMLKI                                                                                        Y76                 00000224
3 BQ 19631601J28MAY2628MAY26   4    BZO15001500+0200  ANR16501650+0200  DH4URQONMLKI                                                                                        Y76                 00000225
3 BQ 19631701J04APR2618APR26     6  BZO12101210+0200  ANR14001400+0200  DH4URQONMLKI                                                                                        Y76                 00000226
3 BQ 19631801J21MAY2621MAY26   4    BZO16551655+0200  ANR18451845+0200  DH4URQONMLKI                                                                                        Y76                 00000227
3 BQ 19631901J04JUN2622OCT26   4    BZO09550955+0200  ANR11451145+0200  DH4URQONMLKI                                                                                        Y76                 00000228
3 BQ 19640101J03DEC2524DEC25  3     ANR12001200+0100  BZO13551355+0100  DH4URQONMLKI                                                                                        Y76                 00000229
3 BQ 19640201J31DEC2525FEB26  3     ANR12001200+0100  BZO13551355+0100  DH4URQONMLKI                                                                                        Y76                 00000230
3 BQ 19640301J11MAR2625MAR26  3     ANR12001200+0100  BZO13551355+0100  DH4URQONMLKI                                                                                        Y76                 00000231
3 BQ 19640401J07DEC2507DEC25      7 ANR17251725+0100  BZO19201920+0100  DH4URQONMLKI                                                                                        Y76                 00000232
3 BQ 19640501J14DEC2528DEC25      7 ANR17251725+0100  BZO19201920+0100  DH4URQONMLKI                                                                                        Y76                 00000233
3 BQ 19640601J04JAN2622MAR26      7 ANR17251725+0100  BZO19201920+0100  DH4URQONMLKI                                                                                        Y76                 00000234
3 BQ 19640701J19DEC2519DEC25    5   ANR13151315+0100  BZO15101510+0100  DH4URQONMLKI                                                                                        Y76                 00000235
3 BQ 19640801J06JAN2606JAN26 2      ANR13151315+0100  BZO15101510+0100  DH4URQONMLKI                                                                                        Y76                 00000236
3 BQ 19640901J13FEB2620FEB26    5   ANR13151315+0100  BZO15101510+0100  DH4URQONMLKI                                                                                        Y76                 00000237
3 BQ 19641001J20DEC2520DEC25     6  ANR12301230+0100  BZO14251425+0100  DH4URQONMLKIY                                                                                       Y76                 00000238
3 BQ 19641101J27DEC2527DEC25     6  ANR12301230+0100  BZO14251425+0100  DH4URQONMLKI                                                                                        Y76                 00000239
3 BQ 19641201J03JAN2628MAR26     6  ANR12301230+0100  BZO14251425+0100  DH4URQONMLKI                                                                                        Y76                 00000240
3 BQ 19641301J04MAR2604MAR26  3     ANR12001200+0100  BZO13551355+0100  DH4URQONMLKIY                                                                                       Y76                 00000241
3 BQ 19641401J29MAR2629MAR26      7 ANR15051505+0200  BZO16451645+0200  DH4URQONMLKI                                                                                        Y76                 00000242
3 BQ 19641501J05APR2618OCT26      7 ANR15051505+0200  BZO16451645+0200  DH4URQONMLKI                                                                                        Y76                 00000243
3 BQ 19641601J02APR2614MAY26   4    ANR17301730+0200  BZO19101910+0200  DH4URQONMLKI                                                                                        Y76                 00000244
3 BQ 19641701J28MAY2628MAY26   4    ANR17301730+0200  BZO19101910+0200  DH4URQONMLKI                                                                                        Y76                 00000245
3 BQ 19641801J04APR2618APR26     6  ANR14451445+0200  BZO16251625+0200  DH4URQONMLKI                                                                                        Y76                 00000246
3 BQ 19641901J21MAY2621MAY26   4    ANR19301930+0200  BZO21102110+0200  DH4URQONMLKI                                                                                        Y76                 00000247
3 BQ 19642001J04JUN2622OCT26   4    ANR12251225+0200  BZO14051405+0200  DH4URQONMLKI                                                                                        Y76                 00000248
3 BQ 19660101J29MAY2629MAY26    5   BZO14001400+0200  MAH16001600+0200  DH4URQONMLKI                                                                                        Y76                 00000249
3 BQ 19660201J02JUN2617JUL26 2  5   BZO14001400+0200  MAH16001600+0200  DH4URQONMLKI                                                                                        Y76                 00000250
3 BQ 19660301J24JUL2625SEP26    5   BZO14001400+0200  MAH16001600+0200  DH4URQONMLKI                                                                                        Y76                 00000251
3 BQ 19670101J29MAY2629MAY26    5   MAH16451645+0200  BZO18451845+0200  DH4URQONMLKI                                                                                        Y76                 00000252
3 BQ 19670201J02JUN2617JUL26 2  5   MAH16451645+0200  BZO18451845+0200  DH4URQONMLKI                                                                                        Y76                 00000253
3 BQ 19670301J24JUL2625SEP26    5   MAH16451645+0200  BZO18451845+0200  DH4URQONMLKI                                                                                        Y76                 00000254
3 BQ 19680101J28MAY2601OCT26   4    BZO14101410+0200  IBZ16401640+0200  DH4URQONMLKI                                                                                        Y76                 00000255
3 BQ 19680201J31MAY2604OCT26      7 BZO14401440+0200  IBZ17101710+0200  DH4URQONMLKI                                                                                        Y76                 00000256
3 BQ 19680301J02JUN2614JUL26 2      BZO15001500+0200  IBZ17301730+0200  DH4URQONMLKI                                                                                        Y76                 00000257
3 BQ 19690101J28MAY2601OCT26   4    IBZ17251725+0200  BZO19551955+0200  DH4URQONMLKI                                                                                        Y76                 00000258
3 BQ 19690201J31MAY2604OCT26      7 IBZ17551755+0200  BZO20252025+0200  DH4URQONMLKI                                                                                        Y76                 00000259
3 BQ 19690301J02JUN2614JUL26 2      IBZ18151815+0200  BZO20452045+0200  DH4URQONMLKI                                                                                        Y76                 00000260
3 BQ 19700101J05JUN2611SEP26    5   BZO08150815+0200  BWK09400940+0200  DH4URQONMLKI                                                                                        Y76                 00000261
3 BQ 19710101J05JUN2611SEP26    5   BWK14201420+0200  BZO15501550+0200  DH4URQONMLKI                                                                                        Y76                 00000262
3 BQ 19740101J01JUN2628SEP261   5   FCO09500950+0200  OMO11151115+0200  DH4URQONMLKI                                                                                        Y76                 00000263
3 BQ 19750101J01JUN2628SEP261   5   OMO15151515+0200  FCO16301630+0200  DH4URQONMLKI                                                                                        Y76                 00000264
3 BQ 19780101J22MAY2622MAY26    5   OMO11201120+0200  PMO12501250+0200  DH4URQONMLKI                                                                                        Y76                 00000265
3 BQ 19780201J25MAY2605OCT261   5   OMO11201120+0200  PMO12501250+0200  DH4URQONMLKI                                                                                        Y76                 00000266
3 BQ 19790101J22MAY2622MAY26    5   PMO13351335+0200  OMO14551455+0200  DH4URQONMLKI                                                                                        Y76                 00000267
3 BQ 19790201J25MAY2605OCT261   5   PMO13351335+0200  OMO14551455+0200  DH4URQONMLKI                                                                                        Y76                 00000268
3 BQ 19800101J03DEC2510DEC25  3     BZO08400840+0100  HAJ10201020+0100  DH4URQONMLKI                                                                                        Y76                 00000269
3 BQ 19800201J24DEC2524DEC25  3     BZO08400840+0100  HAJ10201020+0100  DH4URQONMLKI                                                                                        Y76                 00000270
3 BQ 19800301J31DEC2521JAN26  3     BZO08400840+0100  HAJ10201020+0100  DH4URQONMLKI                                                                                        Y76                 00000271
3 BQ 19800401J04FEB2625MAR26  3     BZO08400840+0100  HAJ10201020+0100  DH4URQONMLKI                                                                                        Y76                 00000272
3 BQ 19800501J07DEC2507DEC25      7 BZO09400940+0100  HAJ11201120+0100  DH4URQONMLKI                                                                                        Y76                 00000273
3 BQ 19800601J21DEC2528DEC25      7 BZO09400940+0100  HAJ11201120+0100  DH4URQONMLKI                                                                                        Y76                 00000274
3 BQ 19800701J04JAN2622MAR26      7 BZO09400940+0100  HAJ11201120+0100  DH4URQONMLKI                                                                                        Y76                 00000275
3 BQ 19800801J14DEC2514DEC25      7 BZO09400940+0100  HAJ11201120+0100  DH4URQONMLKIY                                                                                       Y76                 00000276
3 BQ 19800901J17DEC2517DEC25  3     BZO08400840+0100  HAJ10201020+0100  DH4URQONMLKIY                                                                                       Y76                 00000277
3 BQ 19801001J28JAN2628JAN26  3     BZO08400840+0100  HAJ10201020+0100  DH4URQONMLKIY                                                                                       Y76                 00000278
3 BQ 19801101J30MAR2619OCT261       BZO09250925+0200  HAJ11051105+0200  DH4URQONMLKI                                                                                        Y76                 00000279
3 BQ 19801201J02APR2622OCT26   4    BZO09050905+0200  HAJ10451045+0200  DH4URQONMLKI                                                                                        Y76                 00000280
3 BQ 19810101J03DEC2503DEC25  3     HAJ11051105+0100  BZO12401240+0100  DH4URQONMLKI                                                                                        Y76                 00000281
3 BQ 19810201J17DEC2524DEC25  3     HAJ11051105+0100  BZO12401240+0100  DH4URQONMLKI                                                                                        Y76                 00000282
3 BQ 19810301J31DEC2514JAN26  3     HAJ11051105+0100  BZO12401240+0100  DH4URQONMLKI                                                                                        Y76                 00000283
3 BQ 19810401J28JAN2625MAR26  3     HAJ11051105+0100  BZO12401240+0100  DH4URQONMLKI                                                                                        Y76                 00000284
3 BQ 19810501J07DEC2507DEC25      7 HAJ12051205+0100  BZO13501350+0100  DH4URQONMLKI                                                                                        Y76                 00000285
3 BQ 19810601J14DEC2528DEC25      7 HAJ12051205+0100  BZO13501350+0100  DH4URQONMLKI                                                                                        Y76                 00000286
3 BQ 19810701J04JAN2622MAR26      7 HAJ12051205+0100  BZO13501350+0100  DH4URQONMLKI                                                                                        Y76                 00000287
3 BQ 19810801J10DEC2510DEC25  3     HAJ11051105+0100  BZO12401240+0100  DH4URQONMLKIY                                                                                       Y76                 00000288
3 BQ 19810901J21JAN2621JAN26  3     HAJ11051105+0100  BZO12401240+0100  DH4URQONMLKIY                                                                                       Y76                 00000289
3 BQ 19811001J30MAR2619OCT261       HAJ11501150+0200  BZO13301330+0200  DH4URQONMLKI                                                                                        Y76                 00000290
3 BQ 19811101J02APR2622OCT26   4    HAJ11301130+0200  BZO13101310+0200  DH4URQONMLKI                                                                                        Y76                 00000291
3 BQ 19840101J01JUN2628SEP261   5   OMO11551155+0200  BRI12501250+0200  DH4URQONMLKI                                                                                        Y76                 00000292
3 BQ 19850101J01JUN2628SEP261   5   BRI13351335+0200  OMO14301430+0200  DH4URQONMLKI                                                                                        Y76                 00000293
3 BQ 19860101J17JAN2628MAR26     6  BZO10351035+0100  GOT13101310+0100  DH4URQONMLKIWSYAC                                                                                   Y76                 00000294
3 BQ 19870101J17JAN2628MAR26     6  GOT13551355+0100  BZO16351635+0100  DH4URQONMLKIWSYAC                                                                                   Y76                 00000295
3 BQ 19880101J22MAY2622MAY26    5   OMO15401540+0200  BGY17051705+0200  DH4URQONMLKI                                                                                        Y76                 00000296
3 BQ 19880201J25MAY2605OCT261   5   OMO15401540+0200  BGY17051705+0200  DH4URQONMLKI                                                                                        Y76                 00000297
3 BQ 19890101J22MAY2622MAY26    5   BGY09100910+0200  OMO10351035+0200  DH4URQONMLKI                                                                                        Y76                 00000298
3 BQ 19890201J25MAY2605OCT261   5   BGY09100910+0200  OMO10351035+0200  DH4URQONMLKI                                                                                        Y76                 00000299
3 BQ 19950101J19DEC2526DEC25    5   BZO10151015+0100  WAW12251225+0100  DH4URQONMLKI                                                                                        Y76                 00000300
3 BQ 19950201J02JAN2627MAR26    5   BZO10151015+0100  WAW12251225+0100  DH4URQONMLKI                                                                                        Y76                 00000301
3 BQ 19960101J19DEC2526DEC25    5   WAW13151315+0100  BZO15351535+0100  DH4URQONMLKIWSYAC                                                                                   Y76                 00000302
3 BQ 19960201J02JAN2627MAR26    5   WAW13151315+0100  BZO15351535+0100  DH4URQONMLKIWSYAC                                                                                   Y76                 00000303
3 BQ 19970101J10DEC2524DEC25  3     BZO13351335+0100  DRS15101510+0100  DH4URQONMLKI                                                                                        Y76                 00000304
3 BQ 19970201J31DEC2525MAR26  3     BZO13351335+0100  DRS15101510+0100  DH4URQONMLKI                                                                                        Y76                 00000305
3 BQ 19970301J14DEC2528DEC25      7 BZO16501650+0100  DRS18251825+0100  DH4URQONMLKI                                                                                        Y76                 00000306
3 BQ 19970401J04JAN2622MAR26      7 BZO16501650+0100  DRS18251825+0100  DH4URQONMLKI                                                                                        Y76                 00000307
3 BQ 19970501J29MAR2629MAR26      7 BZO18301830+0200  DRS20002000+0200  DH4URQONMLKI                                                                                        Y76                 00000308
3 BQ 19970601J05APR2618OCT26      7 BZO18301830+0200  DRS20002000+0200  DH4URQONMLKI                                                                                        Y76                 00000309
3 BQ 19970701J01APR2621OCT26  3     BZO08450845+0200  DRS10151015+0200  DH4URQONMLKI                                                                                        Y76                 00000310
3 BQ 19980101J10DEC2524DEC25  3     DRS15551555+0100  BZO17301730+0100  DH4URQONMLKI                                                                                        Y76                 00000311
3 BQ 19980201J31DEC2525MAR26  3     DRS15551555+0100  BZO17301730+0100  DH4URQONMLKI                                                                                        Y76                 00000312
3 BQ 19980301J14DEC2528DEC25      7 DRS19101910+0100  BZO20402040+0100  DH4URQONMLKI                                                                                        Y76                 00000313
3 BQ 19980401J04JAN2622MAR26      7 DRS19101910+0100  BZO20402040+0100  DH4URQONMLKI                                                                                        Y76                 00000314
3 BQ 19980501J29MAR2629MAR26      7 DRS20452045+0200  BZO22152215+0200  DH4URQONMLKI                                                                                        Y76                 00000315
3 BQ 19980601J05APR2618OCT26      7 DRS20452045+0200  BZO22152215+0200  DH4URQONMLKI                                                                                        Y76                 00000316
3 BQ 19980701J01APR2621OCT26  3     DRS11001100+0200  BZO12301230+0200  DH4URQONMLKI                                                                                        Y76                 00000317
3 BQ 23800101J29MAY2617JUL26    5   OLB09200920+0200  BRN11051105+0200  DH4U                                                                                                Y76                 00000318
3 BQ 23800201J30AUG2611OCT26      7 OLB09200920+0200  BRN11051105+0200  DH4U                                                                                                Y76                 00000319
3 BQ 23800301J28AUG2609OCT26    5   OLB10451045+0200  BRN12301230+0200  DH4U                                                                                                Y76                 00000320
3 BQ 23810101J29MAY2617JUL26    5   BRN11501150+0200  OLB13351335+0200  DH4U                                                                                                Y76                 00000321
3 BQ 23810201J30AUG2611OCT26      7 BRN11501150+0200  OLB13351335+0200  DH4U                                                                                                Y76                 00000322
3 BQ 23810301J28AUG2609OCT26    5   BRN13201320+0200  OLB15051505+0200  DH4U                                                                                                Y76                 00000323
3 BQ 23820101J30MAY2611JUL26     6  CAG10401040+0200  BRN12401240+0200  DH4U                                                                                                Y76                 00000324
3 BQ 23820201J29AUG2610OCT26     6  CAG10401040+0200  BRN12401240+0200  DH4U                                                                                                Y76                 00000325
3 BQ 23830101J30MAY2611JUL26     6  BRN13301330+0200  CAG15301530+0200  DH4U                                                                                                Y76                 00000326
3 BQ 23830201J29AUG2610OCT26     6  BRN13301330+0200  CAG15301530+0200  DH4U                                                                                                Y76                 00000327
3 BQ 23900101J05JUN2611SEP26    5   BWK10151015+0200  BTS11401140+0200  DH4U                                                                                                Y76                 00000328
3 BQ 23910101J05JUN2611SEP26    5   BTS12151215+0200  BWK13451345+0200  DH4U                                                                                                Y76                 00000329
00000000000000000000000000000000000000000000000000000000000000000000000000000000000000000000000000000000000000000000000000000000000000000000000000000000000000000000000000000000000000000000000000000000
00000000000000000000000000000000000000000000000000000000000000000000000000000000000000000000000000000000000000000000000000000000000000000000000000000000000000000000000000000000000000000000000000000000
00000000000000000000000000000000000000000000000000000000000000000000000000000000000000000000000000000000000000000000000000000000000000000000000000000000000000000000000000000000000000000000000000000000
5 BQ                                                                                                                                                                                       000329E000330
00000000000000000000000000000000000000000000000000000000000000000000000000000000000000000000000000000000000000000000000000000000000000000000000000000000000000000000000000000000000000000000000000000000
00000000000000000000000000000000000000000000000000000000000000000000000000000000000000000000000000000000000000000000000000000000000000000000000000000000000000000000000000000000000000000000000000000000
00000000000000000000000000000000000000000000000000000000000000000000000000000000000000000000000000000000000000000000000000000000000000000000000000000000000000000000000000000000000000000000000000000000
00000000000000000000000000000000000000000000000000000000000000000000000000000000000000000000000000000000000000000000000000000000000000000000000000000000000000000000000000000000000000000000000000000000
